:100508002830C5B80000008E2831C5B8000000B9F1
:0705180054656D706C650075
:02052E00C1000A
:0F0426008FA07F057E00120435D2B27F057E00C5
:10043500D3EF9400EE940040147D6E7C00ED1D70AA
:0D044500011CED4C70F7EF1F70E61E80E308
:010452002287
:08051F00C2B0120426C2B22290
:1003D900AE08AF097C007D641201C8EF2430FF121A
:1003E900041EAE08AF097C007D641201C87E007F3F
:1003F9000ACFCDCFCECCCE1201C8EF2430FF1204E4
:100409001E7F2E12041EAE08AF097C007D0A120160
:05041900C8ED2430FFD6
:08041E00D2B0120426C2B22282
:1004F000C2B2C2B17F3812051F7F0C12051F7F06E2
:0805000012051F7F0102051F17
:07052700AE071FEE70FA227F
:08049D001204A57FCC12047FBC
:1004A500D2977F04120527C2977F50120527D2974E
:0504B5007FC8020527CD
:02047F00AD07C7
:10048100E4FBC297ED1392977F0F120527D297EDE8
:0C049100C313FD0BBB08EB7F0A0205271C
:1004BA00E4FDFCC297ECC313FCD2973097034304C4
:0C04CA00807F0A1205270DBD08E9AF0471
:0104D6002203
:02045300AA07F6
:100455007F5512047FBA010FE4FCEC90050893FF69
:1004650012047F0CBC08F3BA020FE4FCEC900510F3
:0904750093FF12047F0CBC08F394
:01047E00225B
:02035200A907F9
:1003540012049DB901057F01120453B902057F02FD
:100364001204537F4412047F12049DB901057F01D6
:10037400120453B902057F021204537FBE12047F94
:100384001204BAAB071204BAAD07ED750800F509FB
:10039400750900F508AF03EF4209EDC394805002DC
:1003A400C200EDC394804013D200E509F4FFE508D0
:1003B400F4FEEF2401F509E43EF508AC08AD09E4C8
:1003C40012010EE4FBFA7920783F12000312014770
:0403D4008E088F09F7
:0103D8002202
:02022B00AA0720
:10022D00EA640170477F8012051FE4FBEB9005180F
:10023D0093FF12041E7F037E001204350BBB06ECE8
:10024D007F2D12041E7F4112041E7F3A12041E30B0
:10025D0000057FB012041E2000057F2012041E121F
:10026D0003D97FDF12041E7F4312041EEA6402705D
:10027D00477FC012051FE4FBEB90051893FF120496
:10028D001E7F037E001204350BBB06EC7F2D12047E
:10029D001E7F4212041E7F3A12041E3000057FB0ED
:1002AD0012041E2000057F2012041E1203D97FDFC9
:0802BD0012041E7F4312041E0F
:0102C5002216
:1004D7001204F07F011203527F0112022B7F0212D6
:0904E70003527F0212022B80EA8D
:10000300EC4D6011E8497017ED33EC3304600DE4F7
:10001300FCFFFEFD22E933E8330470F80201B3125A
:10002300017E58046009E4CC24815006285009025B
:1000330001BD2840030201BAC0E0EB4A7044B98015
:1000430006D0E0FB0201A9EF4E701CBD8008EBFF58
:10005300EAFEE9FD80EBE98DF0A4FEE5F00200EC99
:10006300E9CDF9EAFEEBFFEF89F0A4FCE5F0CE89D8
:10007300F0A42EFFE435F0CD89F0A42DFEE435F095
:100083008067EF4E7005BD80D780C3EF8BF0A4ACC3
:10009300F0EE8BF0A42CFCE435F0F8EF8AF0A42CFE
:1000A300E5F038FCE433CB8DF0A42CFCE5F03BF811
:1000B300EE8AF0A42CFCE5F038F8E433CF89F0A401
:1000C3002CFCE5F038CF3400CE89F0A42FFFE5F007
:1000D3003EFEE433C98DF0A42EFEE5F039CD8AF05F
:1000E300A42FFFE5F03EFEE43DFD33D0E0FB5007D7
:1000F3000BBB000F0201BDEC2CFCEF33FFEE33FE14
:06010300ED33FD02019541
:1001090075F020800E75F010800575F0087D007E71
:10011900007F003392D530D50312021DEC33401015
:10012900EF33FFEE33FEED33FDEC33FCD5F0ED227A
:0E013900E5F0247EA2D513CC92E7CDCEFF22B6
:10014700EDD2E7CD33EC3392D524814006E4FFFEB0
:10015700FDFC22FCE4CFCECDCC24E0501174FF800F
:10016700EDC3CC13CCCD13CDCE13CECF13CF0470AC
:07017700F030D5DE02021D8D
:10017E00E9D2E7C933E833F892D5EDD2E7CD33ECC7
:07018E0033FC5002B2D52240
:10019500EC30E7100FBF000C0EBE00080DBD0004CB
:1001A5000BEB6014A2D5EB13FCED92E7FD2274FF77
:1001B500FCFDFEFF22E480F8A2D574FF13FC7D80D0
:0301C500E480EFE4
:030000000202C633
:0C02C600787FE4F6D8FD75812002030D5E
:1001C800BC000BBE0029EF8DF084FFADF022E4CC1B
:1001D800F875F008EF2FFFEE33FEEC33FCEE9DECE4
:1001E800984005FCEE9DFE0FD5F0E9E4CEFD22ED2A
:1001F800F8F5F0EE8420D21CFEADF075F008EF2F74
:10020800FFED33FD4007985006D5F0F222C398FD64
:050218000FD5F0EA2201
:0E021D00C3E49FFFE49EFEE49DFDE49CFC22F2
:1002D2000204D7E493A3F8E493A34003F68001F267
:1002E20008DFF48029E493A3F85407240CC8C3332D
:1002F200C4540F4420C8834004F456800146F6DFFC
:10030200E4800B010204081020408090052EE47E58
:10031200019360BCA3FF543F30E509541FFEE493F0
:10032200A360010ECF54C025E060A840B8E493A3B7
:10033200FAE493A3F8E493A3C8C582C8CAC583CAE2
:10034200F0A3C8C582C8CAC583CADFE9DEE780BE9A
:0105300000CA
:00000001FF
