:0F0378008FA07F057E00120387D2B27F057E0023
:10038700D3EF9400EE940040147D6E7C00ED1D7059
:0D039700011CED4C70F7EF1F70E61E80E3B7
:0103A4002236
:08041900C2B0120378C2B22246
:08042100D2B0120378C2B2222E
:1003E000C2B2C2B17F381204197F0C1204197F0601
:0803F0001204197F0102041937
:07043100AE071FEE70FA2276
:1003F800D2977F04120431C2977F50120431D297EA
:050408007FC802043171
:0203A500AD07A2
:1003A700E4FBC297ED1392977F0F120431D297EDBA
:0C03B700C313FD0BBB08EB7F0A020431EE
:1003C300E4FDFCC297ECC313FCD2973097034304BC
:0C03D300807F0A1204310DBD08E9AF0460
:0103DF0022FB
:1002CE001203F87FCC1203A57F441203A51203F884
:1002DE007FCC1203A57FBE1203A51203C3AB071278
:1002EE0003C37510008F11E511751100F510AF03E2
:1002FE00EF4211E4AC10AD11120206E4FBFA7920C4
:10030E00783F1200FBE4FBFAF9783F12000A120262
:05031E003F8E108F115D
:0103230022B7
:100324001203F87F331203A5E4FB1203C374082BF2
:10033400F8A6070BBB08F37F80120419E4FB7408CA
:100344002BF8E6C4540FFAC3940AEA50042430800C
:10035400022437FF12042174082BF8E6540FFAC361
:10036400940AEA5004243080022437FF1204210B3B
:03037400BB08CBF8
:010377002263
:080429001203E012032480FB22
:100003000202ABE86480F8E933E83360110460F07E
:10001300ED33EC337009E8FCE9FDEAFEEBFF220463
:1000230060DED3EB9FEA9EE99DE8C2E78CF0C2F75E
:1000330095F0400CE8CCF8E9CDF9EACEFAEBCFFB2A
:1000430012027685D0F05804700320D5B3E804700B
:10005300075002B2D50202B592D5EC0460F7E4CCA6
:10006300C0E0C398F8603B94186008400DD0E0FBF3
:1000730002028DE4FBFAC9FC8028E830E406E4C9F7
:10008300FBE4CAFCE830E305E4C9CACBFCE8540747
:100093006010F8C3E913F9EA13FAEB13FBEC13FC52
:1000A300D8F130F52FC3E49CFCEF9BFFEE9AFEEDF5
:1000B30099FDD0E0FBEF4E4D4C701222DB030202A0
:1000C300B2EC2CFCEF33FFEE33FEED33FDED30E706
:1000D300EB02028DEF2BFFEE3AFEED39FDD0E0FB94
:1000E30050130BBB00030202B5ED13FDEE13FEEF3D
:0800F30013FFEC13FC02028D67
:1000FB00EC4D6011E8497017ED33EC3304600DE4FF
:10010B00FCFFFEFD22E933E8330470F80202AB1268
:10011B00027658046009E4CC248150062850090269
:10012B0002B52840030202B2C0E0EB4A7044B9802A
:10013B0006D0E0FB0202A1EF4E701CBD8008EBFF66
:10014B00EAFEE9FD80EBE98DF0A4FEE5F00201E4A7
:10015B00E9CDF9EAFEEBFFEF89F0A4FCE5F0CE89DF
:10016B00F0A42EFFE435F0CD89F0A42DFEE435F09C
:10017B008067EF4E7005BD80D780C3EF8BF0A4ACCA
:10018B00F0EE8BF0A42CFCE435F0F8EF8AF0A42C05
:10019B00E5F038FCE433CB8DF0A42CFCE5F03BF818
:1001AB00EE8AF0A42CFCE5F038F8E433CF89F0A408
:1001BB002CFCE5F038CF3400CE89F0A42FFFE5F00E
:1001CB003EFEE433C98DF0A42EFEE5F039CD8AF066
:1001DB00A42FFFE5F03EFEE43DFD33D0E0FB5007DE
:1001EB000BBB000F0202B5EC2CFCEF33FFEE33FE22
:0601FB00ED33FD02028D50
:1002010075F020800E75F010800575F0087D007E78
:10021100007F003392D530D5031202C0EC33401079
:10022100EF33FFEE33FEED33FDEC33FCD5F0ED2281
:0E023100E5F0247EA2D513CC92E7CDCEFF22BD
:10023F00EDD2E7CD33EC3392D524814006E4FFFEB7
:10024F00FDFC22FCE4CFCECDCC24E0501174FF8016
:10025F00EDC3CC13CCCD13CDCE13CECF13CF0470B3
:07026F00F030D5DE0202C0F1
:10027600E9D2E7C933E833F892D5EDD2E7CD33ECCE
:0702860033FC5002B2D52247
:10028D00EC30E7100FBF000C0EBE00080DBD0004D2
:10029D000BEB6014A2D5EB13FCED92E7FD2274FF7E
:1002AD00FCFDFEFF22E480F8A2D574FF13FC7D80D7
:0302BD00E480EFEB
:0300000002040DEA
:0C040D00787FE4F6D8FD75811102042907
:0E02C000C3E49FFFE49EFEE49DFDE49CFC224F
:00000001FF
